{
  "contractName": "TaskManager",
  "abi": [
    {
      "constant": true,
      "inputs": [],
      "name": "nTasks",
      "outputs": [
        {
          "name": "",
          "type": "uint256"
        }
      ],
      "payable": false,
      "stateMutability": "view",
      "type": "function"
    },
    {
      "inputs": [],
      "payable": false,
      "stateMutability": "nonpayable",
      "type": "constructor"
    },
    {
      "anonymous": false,
      "inputs": [
        {
          "indexed": false,
          "name": "owner",
          "type": "address"
        },
        {
          "indexed": false,
          "name": "name",
          "type": "string"
        },
        {
          "indexed": false,
          "name": "phase",
          "type": "uint8"
        },
        {
          "indexed": false,
          "name": "priority",
          "type": "uint256"
        }
      ],
      "name": "TaskAdded",
      "type": "event"
    },
    {
      "constant": true,
      "inputs": [
        {
          "name": "_taskIndex",
          "type": "uint256"
        }
      ],
      "name": "getTask",
      "outputs": [
        {
          "name": "owner",
          "type": "address"
        },
        {
          "name": "name",
          "type": "string"
        },
        {
          "name": "phase",
          "type": "uint8"
        },
        {
          "name": "ttype",
          "type": "uint8"
        },
        {
          "name": "priority",
          "type": "uint256"
        }
      ],
      "payable": false,
      "stateMutability": "view",
      "type": "function"
    },
    {
      "constant": true,
      "inputs": [],
      "name": "listMyTasks",
      "outputs": [
        {
          "name": "",
          "type": "uint256[]"
        }
      ],
      "payable": false,
      "stateMutability": "view",
      "type": "function"
    },
    {
      "constant": false,
      "inputs": [
        {
          "name": "_priority",
          "type": "uint256"
        }
      ],
      "name": "listMyTasksByPriority",
      "outputs": [
        {
          "components": [
            {
              "name": "owner",
              "type": "address"
            },
            {
              "name": "name",
              "type": "string"
            },
            {
              "name": "phase",
              "type": "uint8"
            },
            {
              "name": "ttype",
              "type": "uint8"
            },
            {
              "name": "priority",
              "type": "uint256"
            }
          ],
          "name": "",
          "type": "tuple[]"
        }
      ],
      "payable": false,
      "stateMutability": "nonpayable",
      "type": "function"
    },
    {
      "constant": false,
      "inputs": [
        {
          "name": "_name",
          "type": "string"
        },
        {
          "name": "_phase",
          "type": "uint8"
        },
        {
          "name": "_type",
          "type": "uint8"
        },
        {
          "name": "_priority",
          "type": "uint256"
        }
      ],
      "name": "addTask",
      "outputs": [
        {
          "name": "index",
          "type": "uint256"
        }
      ],
      "payable": false,
      "stateMutability": "nonpayable",
      "type": "function"
    },
    {
      "constant": false,
      "inputs": [
        {
          "name": "_taskIndex",
          "type": "uint256"
        },
        {
          "name": "_phase",
          "type": "uint8"
        }
      ],
      "name": "updatePhase",
      "outputs": [],
      "payable": false,
      "stateMutability": "nonpayable",
      "type": "function"
    },
    {
      "constant": false,
      "inputs": [
        {
          "name": "_taskIndex",
          "type": "uint256"
        },
        {
          "name": "_name",
          "type": "string"
        }
      ],
      "name": "updateName",
      "outputs": [],
      "payable": false,
      "stateMutability": "nonpayable",
      "type": "function"
    }
  ],
  "bytecode": "0x60806040523480156200001157600080fd5b50600080819055506200006e6040805190810160405280601381526020017f437265617465205461736b204d616e6167657200000000000000000000000000815250600260036001620001ca640100000000026401000000009004565b50620000c36040805190810160405280601681526020017f43726561746520596f7572206669727374207461736b000000000000000000008152506000806002620001ca640100000000026401000000009004565b50620001196040805190810160405280601081526020017f436c65616e20796f757220686f75736500000000000000000000000000000000815250600060026005620001ca640100000000026401000000009004565b506200016e6040805190810160405280601a81526020017f5761746368206e657720737069646572206d616e206d6f7669650000000000008152506001806003620001ca640100000000026401000000009004565b50620001c36040805190810160405280601c81526020017f7761746368206e657720657069736f6465206f66206f6e7069656365000000008152506000806005620001ca640100000000026401000000009004565b506200076c565b600060018210158015620001df575060058211155b151562000223576040517f08c379a00000000000000000000000000000000000000000000000000000000081526004016200021a9062000656565b60405180910390fd5b6200022d6200043f565b60a0604051908101604052803373ffffffffffffffffffffffffffffffffffffffff1681526020018781526020018660068111156200026857fe5b81526020018560058111156200027a57fe5b8152602001848152509050600180829080600181540180825580915050906001820390600052602060002090600402016000909192909190915060008201518160000160006101000a81548173ffffffffffffffffffffffffffffffffffffffff021916908373ffffffffffffffffffffffffffffffffffffffff1602179055506020820151816001019080519060200190620003199291906200049d565b5060408201518160020160006101000a81548160ff021916908360068111156200033f57fe5b021790555060608201518160020160016101000a81548160ff021916908360058111156200036957fe5b02179055506080820151816003015550500391506000808154809291906001019190505550600360003373ffffffffffffffffffffffffffffffffffffffff1673ffffffffffffffffffffffffffffffffffffffff1681526020019081526020016000208290806001815401808255809150509060018203906000526020600020016000909192909190915055507f6f01dc0a3f1209ed3a201b417e08a69b7ab49236895cbcfa0f62b481101d7e10338787866040516200042e949392919062000602565b60405180910390a150949350505050565b60a060405190810160405280600073ffffffffffffffffffffffffffffffffffffffff16815260200160608152602001600060068111156200047d57fe5b8152602001600060058111156200049057fe5b8152602001600081525090565b828054600181600116156101000203166002900490600052602060002090601f016020900481019282601f10620004e057805160ff191683800117855562000511565b8280016001018555821562000511579182015b8281111562000510578251825591602001919060010190620004f3565b5b50905062000520919062000524565b5090565b6200054991905b80821115620005455760008160009055506001016200052b565b5090565b90565b6200055781620006d5565b82525050565b6200056881620006e9565b82525050565b60006200057b8262000678565b62000587818562000683565b93506200059981856020860162000725565b620005a4816200075b565b840191505092915050565b6000620005be60208362000683565b91507f7072696f72697479206d757374206265206265747765656e203120616e6420356000830152602082019050919050565b620005fc81620006cb565b82525050565b60006080820190506200061960008301876200054c565b81810360208301526200062d81866200056e565b90506200063e60408301856200055d565b6200064d6060830184620005f1565b95945050505050565b600060208201905081810360008301526200067181620005af565b9050919050565b600081519050919050565b600082825260208201905092915050565b6000600782101515620006a357fe5b819050919050565b600073ffffffffffffffffffffffffffffffffffffffff82169050919050565b6000819050919050565b6000620006e282620006fd565b9050919050565b6000620006f68262000694565b9050919050565b60006200070a8262000711565b9050919050565b60006200071e82620006ab565b9050919050565b60005b838110156200074557808201518184015260208101905062000728565b8381111562000755576000848401525b50505050565b6000601f19601f8301169050919050565b611a06806200077c6000396000f3fe608060405234801561001057600080fd5b506004361061009a576000357c01000000000000000000000000000000000000000000000000000000009004806369c92ca11161007857806369c92ca11461011f578063a082a8191461014f578063e2c530751461016d578063e95528f11461018b5761009a565b80631d65e77e1461009f57806353e76f2c146100d357806361b42f39146100ef575b600080fd5b6100b960048036036100b491908101906111b4565b6101a7565b6040516100ca959493929190611645565b60405180910390f35b6100ed60048036036100e89190810190611219565b610383565b005b610109600480360361010491908101906111b4565b610433565b604051610116919061169f565b60405180910390f35b61013960048036036101349190810190611139565b610697565b6040516101469190611763565b60405180910390f35b6101576108fe565b60405161016491906116c1565b60405180910390f35b610175610993565b6040516101829190611763565b60405180910390f35b6101a560048036036101a091908101906111dd565b610999565b005b600060606000806000856001805490501115156101f9576040517f08c379a00000000000000000000000000000000000000000000000000000000081526004016101f0906116e3565b60405180910390fd5b60018681548110151561020857fe5b906000526020600020906004020160000160009054906101000a900473ffffffffffffffffffffffffffffffffffffffff16945060018681548110151561024b57fe5b90600052602060002090600402016001018054600181600116156101000203166002900480601f0160208091040260200160405190810160405280929190818152602001828054600181600116156101000203166002900480156102f05780601f106102c5576101008083540402835291602001916102f0565b820191906000526020600020905b8154815290600101906020018083116102d357829003601f168201915b5050505050935060018681548110151561030657fe5b906000526020600020906004020160020160009054906101000a900460ff16925060018681548110151561033657fe5b906000526020600020906004020160020160019054906101000a900460ff16915060018681548110151561036657fe5b906000526020600020906004020160030154905091939590929450565b813373ffffffffffffffffffffffffffffffffffffffff166001828154811015156103aa57fe5b906000526020600020906004020160000160009054906101000a900473ffffffffffffffffffffffffffffffffffffffff1673ffffffffffffffffffffffffffffffffffffffff16141561042e578160018481548110151561040857fe5b9060005260206000209060040201600101908051906020019061042c929190610e34565b505b505050565b606060018210158015610447575060058211155b1515610488576040517f08c379a000000000000000000000000000000000000000000000000000000000815260040161047f90611723565b60405180910390fd5b61049182610a55565b60006002805490501115156104db576040517f08c379a00000000000000000000000000000000000000000000000000000000081526004016104d290611743565b60405180910390fd5b6002805480602002602001604051908101604052809291908181526020016000905b8282101561068c578382906000526020600020906004020160a060405190810160405290816000820160009054906101000a900473ffffffffffffffffffffffffffffffffffffffff1673ffffffffffffffffffffffffffffffffffffffff1673ffffffffffffffffffffffffffffffffffffffff168152602001600182018054600181600116156101000203166002900480601f0160208091040260200160405190810160405280929190818152602001828054600181600116156101000203166002900480156106105780601f106105e557610100808354040283529160200191610610565b820191906000526020600020905b8154815290600101906020018083116105f357829003601f168201915b505050505081526020016002820160009054906101000a900460ff16600681111561063757fe5b600681111561064257fe5b81526020016002820160019054906101000a900460ff16600581111561066457fe5b600581111561066f57fe5b8152602001600382015481525050815260200190600101906104fd565b505050509050919050565b6000600182101580156106ab575060058211155b15156106ec576040517f08c379a00000000000000000000000000000000000000000000000000000000081526004016106e390611703565b60405180910390fd5b6106f4610eb4565b60a0604051908101604052803373ffffffffffffffffffffffffffffffffffffffff16815260200187815260200186600681111561072e57fe5b815260200185600581111561073f57fe5b8152602001848152509050600180829080600181540180825580915050906001820390600052602060002090600402016000909192909190915060008201518160000160006101000a81548173ffffffffffffffffffffffffffffffffffffffff021916908373ffffffffffffffffffffffffffffffffffffffff16021790555060208201518160010190805190602001906107dc929190610f10565b5060408201518160020160006101000a81548160ff0219169083600681111561080157fe5b021790555060608201518160020160016101000a81548160ff0219169083600581111561082a57fe5b02179055506080820151816003015550500391506000808154809291906001019190505550600360003373ffffffffffffffffffffffffffffffffffffffff1673ffffffffffffffffffffffffffffffffffffffff1681526020019081526020016000208290806001815401808255809150509060018203906000526020600020016000909192909190915055507f6f01dc0a3f1209ed3a201b417e08a69b7ab49236895cbcfa0f62b481101d7e10338787866040516108ed94939291906115f9565b60405180910390a150949350505050565b6060600360003373ffffffffffffffffffffffffffffffffffffffff1673ffffffffffffffffffffffffffffffffffffffff16815260200190815260200160002080548060200260200160405190810160405280929190818152602001828054801561098957602002820191906000526020600020905b815481526020019060010190808311610975575b5050505050905090565b60005481565b813373ffffffffffffffffffffffffffffffffffffffff166001828154811015156109c057fe5b906000526020600020906004020160000160009054906101000a900473ffffffffffffffffffffffffffffffffffffffff1673ffffffffffffffffffffffffffffffffffffffff161415610a505781600184815481101515610a1e57fe5b906000526020600020906004020160020160006101000a81548160ff02191690836006811115610a4a57fe5b02179055505b505050565b60026000610a639190610f90565b6060600360003373ffffffffffffffffffffffffffffffffffffffff1673ffffffffffffffffffffffffffffffffffffffff168152602001908152602001600020805480602002602001604051908101604052809291908181526020018280548015610aee57602002820191906000526020600020905b815481526020019060010190808311610ada575b5050505050905060008090505b8151811015610e2f578260018383815181101515610b1557fe5b90602001906020020151815481101515610b2b57fe5b9060005260206000209060040201600301541415610e2257610b4b610eb4565b60a0604051908101604052803373ffffffffffffffffffffffffffffffffffffffff16815260200160018585815181101515610b8357fe5b90602001906020020151815481101515610b9957fe5b90600052602060002090600402016001018054600181600116156101000203166002900480601f016020809104026020016040519081016040528092919081815260200182805460018160011615610100020316600290048015610c3e5780601f10610c1357610100808354040283529160200191610c3e565b820191906000526020600020905b815481529060010190602001808311610c2157829003601f168201915b5050505050815260200160018585815181101515610c5857fe5b90602001906020020151815481101515610c6e57fe5b906000526020600020906004020160020160009054906101000a900460ff166006811115610c9857fe5b815260200160018585815181101515610cad57fe5b90602001906020020151815481101515610cc357fe5b906000526020600020906004020160020160019054906101000a900460ff166005811115610ced57fe5b815260200160018585815181101515610d0257fe5b90602001906020020151815481101515610d1857fe5b90600052602060002090600402016003015481525090506002819080600181540180825580915050906001820390600052602060002090600402016000909192909190915060008201518160000160006101000a81548173ffffffffffffffffffffffffffffffffffffffff021916908373ffffffffffffffffffffffffffffffffffffffff1602179055506020820151816001019080519060200190610dc0929190610f10565b5060408201518160020160006101000a81548160ff02191690836006811115610de557fe5b021790555060608201518160020160016101000a81548160ff02191690836005811115610e0e57fe5b021790555060808201518160030155505050505b8080600101915050610afb565b505050565b828054600181600116156101000203166002900490600052602060002090601f016020900481019282601f10610e7557805160ff1916838001178555610ea3565b82800160010185558215610ea3579182015b82811115610ea2578251825591602001919060010190610e87565b5b509050610eb09190610fb4565b5090565b60a060405190810160405280600073ffffffffffffffffffffffffffffffffffffffff1681526020016060815260200160006006811115610ef157fe5b815260200160006005811115610f0357fe5b8152602001600081525090565b828054600181600116156101000203166002900490600052602060002090601f016020900481019282601f10610f5157805160ff1916838001178555610f7f565b82800160010185558215610f7f579182015b82811115610f7e578251825591602001919060010190610f63565b5b509050610f8c9190610fb4565b5090565b5080546000825560040290600052602060002090810190610fb19190610fd9565b50565b610fd691905b80821115610fd2576000816000905550600101610fba565b5090565b90565b61105c91905b8082111561105857600080820160006101000a81549073ffffffffffffffffffffffffffffffffffffffff021916905560018201600061101f919061105f565b6002820160006101000a81549060ff02191690556002820160016101000a81549060ff0219169055600382016000905550600401610fdf565b5090565b90565b50805460018160011615610100020316600290046000825580601f1061108557506110a4565b601f0160209004906000526020600020908101906110a39190610fb4565b5b50565b60006110b382356118e3565b905092915050565b60006110c782356118fc565b905092915050565b600082601f83011215156110e257600080fd5b81356110f56110f0826117ab565b61177e565b9150808252602083016020830185838301111561111157600080fd5b61111c838284611979565b50505092915050565b60006111318235611915565b905092915050565b6000806000806080858703121561114f57600080fd5b600085013567ffffffffffffffff81111561116957600080fd5b611175878288016110cf565b9450506020611186878288016110a7565b9350506040611197878288016110bb565b92505060606111a887828801611125565b91505092959194509250565b6000602082840312156111c657600080fd5b60006111d484828501611125565b91505092915050565b600080604083850312156111f057600080fd5b60006111fe85828601611125565b925050602061120f858286016110a7565b9150509250929050565b6000806040838503121561122c57600080fd5b600061123a85828601611125565b925050602083013567ffffffffffffffff81111561125757600080fd5b611263858286016110cf565b9150509250929050565b60006112798383611565565b905092915050565b600061128d83836115db565b60208301905092915050565b6112a28161191f565b82525050565b6112b18161187b565b82525050565b6112c08161187b565b82525050565b60006112d1826117f1565b6112db8185611837565b9350836020820285016112ed856117d7565b60005b8481101561132657838303885261130883835161126d565b92506113138261181d565b91506020880197506001810190506112f0565b508196508694505050505092915050565b6000611342826117fc565b61134c8185611848565b9350611357836117e4565b60005b828110156113855761136d868351611281565b95506113788261182a565b915060018101905061135a565b50849250505092915050565b61139a81611931565b82525050565b6113a981611931565b82525050565b6113b881611943565b82525050565b6113c781611943565b82525050565b60006113d882611812565b6113e2818561186a565b93506113f2818560208601611988565b6113fb816119bb565b840191505092915050565b600061141182611807565b61141b8185611859565b935061142b818560208601611988565b611434816119bb565b840191505092915050565b600061144c600f8361186a565b91507f5461736b73206e6f7420666f756e6400000000000000000000000000000000006000830152602082019050919050565b600061148c60208361186a565b91507f7072696f72697479206d757374206265206265747765656e203120616e6420356000830152602082019050919050565b60006114cc60208361186a565b91507f5072696f72697479206d757374206265206265747765656e203120616e6420356000830152602082019050919050565b600061150c60218361186a565b91507f4e6f207461736b7320776974682074686973207072696f7269747920666f756e60008301527f64000000000000000000000000000000000000000000000000000000000000006020830152604082019050919050565b600060a08301600083015161157d60008601826112a8565b50602083015184820360208601526115958282611406565b91505060408301516115aa6040860182611391565b5060608301516115bd60608601826113af565b5060808301516115d060808601826115db565b508091505092915050565b6115e4816118d9565b82525050565b6115f3816118d9565b82525050565b600060808201905061160e6000830187611299565b818103602083015261162081866113cd565b905061162f60408301856113a0565b61163c60608301846115ea565b95945050505050565b600060a08201905061165a60008301886112b7565b818103602083015261166c81876113cd565b905061167b60408301866113a0565b61168860608301856113be565b61169560808301846115ea565b9695505050505050565b600060208201905081810360008301526116b981846112c6565b905092915050565b600060208201905081810360008301526116db8184611337565b905092915050565b600060208201905081810360008301526116fc8161143f565b9050919050565b6000602082019050818103600083015261171c8161147f565b9050919050565b6000602082019050818103600083015261173c816114bf565b9050919050565b6000602082019050818103600083015261175c816114ff565b9050919050565b600060208201905061177860008301846115ea565b92915050565b6000604051905081810181811067ffffffffffffffff821117156117a157600080fd5b8060405250919050565b600067ffffffffffffffff8211156117c257600080fd5b601f19601f8301169050602081019050919050565b6000602082019050919050565b6000602082019050919050565b600081519050919050565b600081519050919050565b600081519050919050565b600081519050919050565b6000602082019050919050565b6000602082019050919050565b600082825260208201905092915050565b600082825260208201905092915050565b600082825260208201905092915050565b600082825260208201905092915050565b6000611886826118b9565b9050919050565b600060078210151561189b57fe5b819050919050565b60006006821015156118b157fe5b819050919050565b600073ffffffffffffffffffffffffffffffffffffffff82169050919050565b6000819050919050565b60006007821015156118f457600080fd5b819050919050565b600060068210151561190d57600080fd5b819050919050565b6000819050919050565b600061192a82611955565b9050919050565b600061193c8261188d565b9050919050565b600061194e826118a3565b9050919050565b600061196082611967565b9050919050565b6000611972826118b9565b9050919050565b82818337600083830152505050565b60005b838110156119a657808201518184015260208101905061198b565b838111156119b5576000848401525b50505050565b6000601f19601f830116905091905056fea265627a7a7230582091029c954687851d584efaa76bd3ba14f8886acd49ba802708581fa14a8b27506c6578706572696d656e74616cf50037",
  "source": "pragma solidity 0.5.4;\npragma experimental ABIEncoderV2;\n\ncontract TaskManager {\n    /*  \n        Representa o nmero de tarefas, conforme for sendo criadas \n        novas tarefas esse nemro vai sendo incrementado.\n    */\n    uint public nTasks; \n    \n    /* \n        Em que est a tarefa\n    */\n    enum TaskPhase {ToDo, InProgress, Done, Blocked, Review, Postponed, Canceled}\n\n    /* \n        Tipo da tarefa\n    */\n    enum TypeTask {Personal, Family, Home, Work, Review, Student}\n    \n    /* \n        Estrutura da tarefa:\n            criador/dono,\n            nome da tarefa,\n            fase da tarefa,\n            tipo de dprioridade\n    */\n    struct TaskStruct {\n        address owner;\n        string name;\n        TaskPhase phase;\n        TypeTask ttype;\n        /* \n            A prioridade varia de 1-5. Sendo 1 prioridade muito alta e 5 menos importante.\n        */\n        uint priority; \n    }\n    /* \n        Arrey de tarefas\n    */\n    TaskStruct[] private tasks;\n    /* \n        Arrey de tarefas por prioridade\n    */\n    TaskStruct[] private taskByPriority;\n\n    /* \n        Estrutura de chave valor. Vale lembrar que ele \n        adiciona uma tarefa ele j vincula o id da tarefa \n        dentro desse array chamado de myTasks.\n    */\n    mapping (address => uint[]) private myTasks;\n\n    /* \n        Gera um evento toda vez que criamos uma nova tarefa.\n    */\n    event TaskAdded(address owner, string name, TaskPhase phase, uint priority);\n    \n    /*\n        O mtodo modofoer, verifca e vlida se o usurio  de \n        fato o dono da tarefa. Para poder fazer alguma requisio.\n    */\n    modifier onlyOwner (uint _taskIndex) {\n         if  (tasks[_taskIndex].owner == msg.sender) {\n           _;\n        }\n    }\n    \n    /* \n        Mtodo contrutor. Neste caso ele incializa com 0 nTasks.\n        E tambm cria 3 tarefas.\n    */\n    constructor() public {\n        nTasks = 0;\n        addTask (\"Create Task Manager\", TaskPhase.Done, TypeTask.Work, 1);\n        addTask (\"Create Your first task\", TaskPhase.ToDo, TypeTask.Personal, 2);\n        addTask (\"Clean your house\", TaskPhase.ToDo, TypeTask.Home, 5);\n        addTask (\"Watch new spider man movie\", TaskPhase.InProgress, TypeTask.Family, 3);\n        addTask (\"watch new episode of onpiece\", TaskPhase.ToDo, TypeTask.Personal, 5);\n    }    \n\n    /* \n        Funo que pega as tasks\n    */\n    function getTask(uint _taskIndex) public view\n        returns (address owner, string memory name, TaskPhase phase, TypeTask ttype, uint priority) {\n        require ((tasks.length > _taskIndex), \"Tasks not found\");\n        owner = tasks[_taskIndex].owner;\n        name = tasks[_taskIndex].name;\n        phase = tasks[_taskIndex].phase;\n        ttype = tasks[_taskIndex].ttype;\n        priority = tasks[_taskIndex].priority;\n    }\n    \n    /* \n        Funo que lista todas as tarefas de um usuario(dono)\n    */\n    function listMyTasks() public view returns (uint[] memory) {\n        return myTasks[msg.sender];\n    }\n\n    /* \n        Funo responsavel por atualizar o array de tarefas de acordo com uma prioridade\n    */\n    function updateArrayTaskByPriority(uint _priority) private {\n        /* \n            Limpa o array de tarefas por prioridade\n        */\n        delete taskByPriority;\n\n        uint[] memory myTasksAll = myTasks[msg.sender];\n        \n        for (uint index = 0; index < myTasksAll.length; index++) {    \n            if (tasks[myTasksAll[index]].priority == _priority) {\n                TaskStruct memory taskAux = TaskStruct ({\n                    owner: msg.sender,\n                    name: tasks[myTasksAll[index]].name,\n                    phase: tasks[myTasksAll[index]].phase, \n                    ttype: tasks[myTasksAll[index]].ttype,\n                    priority: tasks[myTasksAll[index]].priority\n                });\n                taskByPriority.push(taskAux);\n            }\n        }\n    }\n    \n    /* \n        Funo que lista todas as tarefas de um usuario(dono) \n        de uma determinada prioridade.\n    */\n    function listMyTasksByPriority(uint _priority) public returns (TaskStruct[] memory) {\n        /*\n            Lana um exeo se a prioridade passada for \n            menor que 0 ou maior que 5\n        */\n        require ((_priority >= 1 && _priority <=5), \"Priority must be between 1 and 5\");\n        /* \n            Chama a funo que limpa o array de tarefas por prioridade, \n            e depois insere apartir de uma nova prioridade\n        */\n        updateArrayTaskByPriority(_priority);\n        /*\n            Lana um exeo se a o array de prioridades for \n            menor que ou igual a 0\n        */\n        require ((taskByPriority.length > 0), \"No tasks with this priority found\");\n        \n        return taskByPriority;\n    }\n    \n    /* \n        Funo que cria uma nova tarefa\n    */\n    function addTask(string memory _name, TaskPhase _phase, TypeTask _type, uint _priority) public returns (uint index) {\n        require ((_priority >= 1 && _priority <=5), \"priority must be between 1 and 5\");\n        TaskStruct memory taskAux = TaskStruct ({\n            owner: msg.sender,\n            name: _name,\n            phase: _phase, \n            ttype: _type,\n            priority: _priority\n        });\n        index = tasks.push (taskAux) - 1;\n        nTasks ++;\n        myTasks[msg.sender].push(index);\n        emit TaskAdded (msg.sender, _name, _phase, _priority);\n    }\n    \n    /* \n        Funo que atualiza a fase do projeto\n    */\n    function updatePhase(uint _taskIndex, TaskPhase _phase) public onlyOwner(_taskIndex) {\n        tasks[_taskIndex].phase = _phase;\n    }\n\n    /* \n        Funo que atualiza a o nome do projeto\n    */\n    function updateName(uint _taskIndex, string memory _name) public onlyOwner(_taskIndex) {\n        tasks[_taskIndex].name = _name;\n    }\n}",
  "sourcePath": "/Users/victor/Documents/SD/Trabalho/projeto/EthereumWork/contracts/TaskManager.sol",
  "compiler": {
    "name": "solc",
    "version": "0.5.4+commit.9549d8ff.Emscripten.clang"
  },
  "schemaVersion": "3.4.3",
  "updatedAt": "2021-12-16T00:35:58.380Z",
  "networkType": "ethereum",
  "devdoc": {
    "methods": {}
  },
  "userdoc": {
    "methods": {}
  }
}