{
  "contractName": "TaskManager",
  "abi": [
    {
      "constant": true,
      "inputs": [],
      "name": "nTasks",
      "outputs": [
        {
          "name": "",
          "type": "uint256"
        }
      ],
      "payable": false,
      "stateMutability": "view",
      "type": "function"
    },
    {
      "inputs": [],
      "payable": false,
      "stateMutability": "nonpayable",
      "type": "constructor"
    },
    {
      "anonymous": false,
      "inputs": [
        {
          "indexed": false,
          "name": "owner",
          "type": "address"
        },
        {
          "indexed": false,
          "name": "name",
          "type": "string"
        },
        {
          "indexed": false,
          "name": "phase",
          "type": "uint8"
        },
        {
          "indexed": false,
          "name": "priority",
          "type": "uint256"
        }
      ],
      "name": "TaskAdded",
      "type": "event"
    },
    {
      "constant": true,
      "inputs": [
        {
          "name": "_taskIndex",
          "type": "uint256"
        }
      ],
      "name": "getTask",
      "outputs": [
        {
          "name": "owner",
          "type": "address"
        },
        {
          "name": "name",
          "type": "string"
        },
        {
          "name": "phase",
          "type": "uint8"
        },
        {
          "name": "ttype",
          "type": "uint8"
        },
        {
          "name": "priority",
          "type": "uint256"
        }
      ],
      "payable": false,
      "stateMutability": "view",
      "type": "function"
    },
    {
      "constant": true,
      "inputs": [],
      "name": "listMyTasks",
      "outputs": [
        {
          "name": "",
          "type": "uint256[]"
        }
      ],
      "payable": false,
      "stateMutability": "view",
      "type": "function"
    },
    {
      "constant": false,
      "inputs": [
        {
          "name": "_priority",
          "type": "uint256"
        }
      ],
      "name": "listMyTasksByPriority",
      "outputs": [
        {
          "components": [
            {
              "name": "owner",
              "type": "address"
            },
            {
              "name": "name",
              "type": "string"
            },
            {
              "name": "phase",
              "type": "uint8"
            },
            {
              "name": "ttype",
              "type": "uint8"
            },
            {
              "name": "priority",
              "type": "uint256"
            }
          ],
          "name": "",
          "type": "tuple[]"
        }
      ],
      "payable": false,
      "stateMutability": "nonpayable",
      "type": "function"
    },
    {
      "constant": false,
      "inputs": [
        {
          "name": "_name",
          "type": "string"
        },
        {
          "name": "_phase",
          "type": "uint8"
        },
        {
          "name": "_type",
          "type": "uint8"
        },
        {
          "name": "_priority",
          "type": "uint256"
        }
      ],
      "name": "addTask",
      "outputs": [
        {
          "name": "index",
          "type": "uint256"
        }
      ],
      "payable": false,
      "stateMutability": "nonpayable",
      "type": "function"
    },
    {
      "constant": false,
      "inputs": [
        {
          "name": "_taskIndex",
          "type": "uint256"
        },
        {
          "name": "_phase",
          "type": "uint8"
        }
      ],
      "name": "updatePhase",
      "outputs": [],
      "payable": false,
      "stateMutability": "nonpayable",
      "type": "function"
    }
  ],
  "bytecode": "0x60806040523480156200001157600080fd5b50600080819055506200006e6040805190810160405280601381526020017f437265617465205461736b204d616e6167657200000000000000000000000000815250600260036001620001ca640100000000026401000000009004565b50620000c36040805190810160405280601681526020017f43726561746520596f7572206669727374207461736b000000000000000000008152506000806002620001ca640100000000026401000000009004565b50620001196040805190810160405280601081526020017f436c65616e20796f757220686f75736500000000000000000000000000000000815250600060026005620001ca640100000000026401000000009004565b506200016e6040805190810160405280601a81526020017f5761746368206e657720737069646572206d616e206d6f7669650000000000008152506001806003620001ca640100000000026401000000009004565b50620001c36040805190810160405280601c81526020017f7761746368206e657720657069736f6465206f66206f6e7069656365000000008152506000806005620001ca640100000000026401000000009004565b506200076c565b600060018210158015620001df575060058211155b151562000223576040517f08c379a00000000000000000000000000000000000000000000000000000000081526004016200021a9062000656565b60405180910390fd5b6200022d6200043f565b60a0604051908101604052803373ffffffffffffffffffffffffffffffffffffffff1681526020018781526020018660068111156200026857fe5b81526020018560058111156200027a57fe5b8152602001848152509050600180829080600181540180825580915050906001820390600052602060002090600402016000909192909190915060008201518160000160006101000a81548173ffffffffffffffffffffffffffffffffffffffff021916908373ffffffffffffffffffffffffffffffffffffffff1602179055506020820151816001019080519060200190620003199291906200049d565b5060408201518160020160006101000a81548160ff021916908360068111156200033f57fe5b021790555060608201518160020160016101000a81548160ff021916908360058111156200036957fe5b02179055506080820151816003015550500391506000808154809291906001019190505550600360003373ffffffffffffffffffffffffffffffffffffffff1673ffffffffffffffffffffffffffffffffffffffff1681526020019081526020016000208290806001815401808255809150509060018203906000526020600020016000909192909190915055507f6f01dc0a3f1209ed3a201b417e08a69b7ab49236895cbcfa0f62b481101d7e10338787866040516200042e949392919062000602565b60405180910390a150949350505050565b60a060405190810160405280600073ffffffffffffffffffffffffffffffffffffffff16815260200160608152602001600060068111156200047d57fe5b8152602001600060058111156200049057fe5b8152602001600081525090565b828054600181600116156101000203166002900490600052602060002090601f016020900481019282601f10620004e057805160ff191683800117855562000511565b8280016001018555821562000511579182015b8281111562000510578251825591602001919060010190620004f3565b5b50905062000520919062000524565b5090565b6200054991905b80821115620005455760008160009055506001016200052b565b5090565b90565b6200055781620006d5565b82525050565b6200056881620006e9565b82525050565b60006200057b8262000678565b62000587818562000683565b93506200059981856020860162000725565b620005a4816200075b565b840191505092915050565b6000620005be60208362000683565b91507f7072696f72697479206d757374206265206265747765656e203120616e6420356000830152602082019050919050565b620005fc81620006cb565b82525050565b60006080820190506200061960008301876200054c565b81810360208301526200062d81866200056e565b90506200063e60408301856200055d565b6200064d6060830184620005f1565b95945050505050565b600060208201905081810360008301526200067181620005af565b9050919050565b600081519050919050565b600082825260208201905092915050565b6000600782101515620006a357fe5b819050919050565b600073ffffffffffffffffffffffffffffffffffffffff82169050919050565b6000819050919050565b6000620006e282620006fd565b9050919050565b6000620006f68262000694565b9050919050565b60006200070a8262000711565b9050919050565b60006200071e82620006ab565b9050919050565b60005b838110156200074557808201518184015260208101905062000728565b8381111562000755576000848401525b50505050565b6000601f19601f8301169050919050565b61184b806200077c6000396000f3fe608060405234801561001057600080fd5b506004361061007f576000357c0100000000000000000000000000000000000000000000000000000000900480631d65e77e1461008457806361b42f39146100b857806369c92ca1146100e8578063a082a81914610118578063e2c5307514610136578063e95528f114610154575b600080fd5b61009e6004803603610099919081019061104d565b610170565b6040516100af95949392919061148a565b60405180910390f35b6100d260048036036100cd919081019061104d565b61034c565b6040516100df91906114e4565b60405180910390f35b61010260048036036100fd9190810190610fd2565b6105b0565b60405161010f91906115a8565b60405180910390f35b610120610817565b60405161012d9190611506565b60405180910390f35b61013e6108ac565b60405161014b91906115a8565b60405180910390f35b61016e60048036036101699190810190611076565b6108b2565b005b600060606000806000856001805490501115156101c2576040517f08c379a00000000000000000000000000000000000000000000000000000000081526004016101b990611528565b60405180910390fd5b6001868154811015156101d157fe5b906000526020600020906004020160000160009054906101000a900473ffffffffffffffffffffffffffffffffffffffff16945060018681548110151561021457fe5b90600052602060002090600402016001018054600181600116156101000203166002900480601f0160208091040260200160405190810160405280929190818152602001828054600181600116156101000203166002900480156102b95780601f1061028e576101008083540402835291602001916102b9565b820191906000526020600020905b81548152906001019060200180831161029c57829003601f168201915b505050505093506001868154811015156102cf57fe5b906000526020600020906004020160020160009054906101000a900460ff1692506001868154811015156102ff57fe5b906000526020600020906004020160020160019054906101000a900460ff16915060018681548110151561032f57fe5b906000526020600020906004020160030154905091939590929450565b606060018210158015610360575060058211155b15156103a1576040517f08c379a000000000000000000000000000000000000000000000000000000000815260040161039890611568565b60405180910390fd5b6103aa8261096e565b60006002805490501115156103f4576040517f08c379a00000000000000000000000000000000000000000000000000000000081526004016103eb90611588565b60405180910390fd5b6002805480602002602001604051908101604052809291908181526020016000905b828210156105a5578382906000526020600020906004020160a060405190810160405290816000820160009054906101000a900473ffffffffffffffffffffffffffffffffffffffff1673ffffffffffffffffffffffffffffffffffffffff1673ffffffffffffffffffffffffffffffffffffffff168152602001600182018054600181600116156101000203166002900480601f0160208091040260200160405190810160405280929190818152602001828054600181600116156101000203166002900480156105295780601f106104fe57610100808354040283529160200191610529565b820191906000526020600020905b81548152906001019060200180831161050c57829003601f168201915b505050505081526020016002820160009054906101000a900460ff16600681111561055057fe5b600681111561055b57fe5b81526020016002820160019054906101000a900460ff16600581111561057d57fe5b600581111561058857fe5b815260200160038201548152505081526020019060010190610416565b505050509050919050565b6000600182101580156105c4575060058211155b1515610605576040517f08c379a00000000000000000000000000000000000000000000000000000000081526004016105fc90611548565b60405180910390fd5b61060d610d4d565b60a0604051908101604052803373ffffffffffffffffffffffffffffffffffffffff16815260200187815260200186600681111561064757fe5b815260200185600581111561065857fe5b8152602001848152509050600180829080600181540180825580915050906001820390600052602060002090600402016000909192909190915060008201518160000160006101000a81548173ffffffffffffffffffffffffffffffffffffffff021916908373ffffffffffffffffffffffffffffffffffffffff16021790555060208201518160010190805190602001906106f5929190610da9565b5060408201518160020160006101000a81548160ff0219169083600681111561071a57fe5b021790555060608201518160020160016101000a81548160ff0219169083600581111561074357fe5b02179055506080820151816003015550500391506000808154809291906001019190505550600360003373ffffffffffffffffffffffffffffffffffffffff1673ffffffffffffffffffffffffffffffffffffffff1681526020019081526020016000208290806001815401808255809150509060018203906000526020600020016000909192909190915055507f6f01dc0a3f1209ed3a201b417e08a69b7ab49236895cbcfa0f62b481101d7e1033878786604051610806949392919061143e565b60405180910390a150949350505050565b6060600360003373ffffffffffffffffffffffffffffffffffffffff1673ffffffffffffffffffffffffffffffffffffffff1681526020019081526020016000208054806020026020016040519081016040528092919081815260200182805480156108a257602002820191906000526020600020905b81548152602001906001019080831161088e575b5050505050905090565b60005481565b813373ffffffffffffffffffffffffffffffffffffffff166001828154811015156108d957fe5b906000526020600020906004020160000160009054906101000a900473ffffffffffffffffffffffffffffffffffffffff1673ffffffffffffffffffffffffffffffffffffffff161415610969578160018481548110151561093757fe5b906000526020600020906004020160020160006101000a81548160ff0219169083600681111561096357fe5b02179055505b505050565b6002600061097c9190610e29565b6060600360003373ffffffffffffffffffffffffffffffffffffffff1673ffffffffffffffffffffffffffffffffffffffff168152602001908152602001600020805480602002602001604051908101604052809291908181526020018280548015610a0757602002820191906000526020600020905b8154815260200190600101908083116109f3575b5050505050905060008090505b8151811015610d48578260018383815181101515610a2e57fe5b90602001906020020151815481101515610a4457fe5b9060005260206000209060040201600301541415610d3b57610a64610d4d565b60a0604051908101604052803373ffffffffffffffffffffffffffffffffffffffff16815260200160018585815181101515610a9c57fe5b90602001906020020151815481101515610ab257fe5b90600052602060002090600402016001018054600181600116156101000203166002900480601f016020809104026020016040519081016040528092919081815260200182805460018160011615610100020316600290048015610b575780601f10610b2c57610100808354040283529160200191610b57565b820191906000526020600020905b815481529060010190602001808311610b3a57829003601f168201915b5050505050815260200160018585815181101515610b7157fe5b90602001906020020151815481101515610b8757fe5b906000526020600020906004020160020160009054906101000a900460ff166006811115610bb157fe5b815260200160018585815181101515610bc657fe5b90602001906020020151815481101515610bdc57fe5b906000526020600020906004020160020160019054906101000a900460ff166005811115610c0657fe5b815260200160018585815181101515610c1b57fe5b90602001906020020151815481101515610c3157fe5b90600052602060002090600402016003015481525090506002819080600181540180825580915050906001820390600052602060002090600402016000909192909190915060008201518160000160006101000a81548173ffffffffffffffffffffffffffffffffffffffff021916908373ffffffffffffffffffffffffffffffffffffffff1602179055506020820151816001019080519060200190610cd9929190610da9565b5060408201518160020160006101000a81548160ff02191690836006811115610cfe57fe5b021790555060608201518160020160016101000a81548160ff02191690836005811115610d2757fe5b021790555060808201518160030155505050505b8080600101915050610a14565b505050565b60a060405190810160405280600073ffffffffffffffffffffffffffffffffffffffff1681526020016060815260200160006006811115610d8a57fe5b815260200160006005811115610d9c57fe5b8152602001600081525090565b828054600181600116156101000203166002900490600052602060002090601f016020900481019282601f10610dea57805160ff1916838001178555610e18565b82800160010185558215610e18579182015b82811115610e17578251825591602001919060010190610dfc565b5b509050610e259190610e4d565b5090565b5080546000825560040290600052602060002090810190610e4a9190610e72565b50565b610e6f91905b80821115610e6b576000816000905550600101610e53565b5090565b90565b610ef591905b80821115610ef157600080820160006101000a81549073ffffffffffffffffffffffffffffffffffffffff0219169055600182016000610eb89190610ef8565b6002820160006101000a81549060ff02191690556002820160016101000a81549060ff0219169055600382016000905550600401610e78565b5090565b90565b50805460018160011615610100020316600290046000825580601f10610f1e5750610f3d565b601f016020900490600052602060002090810190610f3c9190610e4d565b5b50565b6000610f4c8235611728565b905092915050565b6000610f608235611741565b905092915050565b600082601f8301121515610f7b57600080fd5b8135610f8e610f89826115f0565b6115c3565b91508082526020830160208301858383011115610faa57600080fd5b610fb58382846117be565b50505092915050565b6000610fca823561175a565b905092915050565b60008060008060808587031215610fe857600080fd5b600085013567ffffffffffffffff81111561100257600080fd5b61100e87828801610f68565b945050602061101f87828801610f40565b935050604061103087828801610f54565b925050606061104187828801610fbe565b91505092959194509250565b60006020828403121561105f57600080fd5b600061106d84828501610fbe565b91505092915050565b6000806040838503121561108957600080fd5b600061109785828601610fbe565b92505060206110a885828601610f40565b9150509250929050565b60006110be83836113aa565b905092915050565b60006110d28383611420565b60208301905092915050565b6110e781611764565b82525050565b6110f6816116c0565b82525050565b611105816116c0565b82525050565b600061111682611636565b611120818561167c565b9350836020820285016111328561161c565b60005b8481101561116b57838303885261114d8383516110b2565b925061115882611662565b9150602088019750600181019050611135565b508196508694505050505092915050565b600061118782611641565b611191818561168d565b935061119c83611629565b60005b828110156111ca576111b28683516110c6565b95506111bd8261166f565b915060018101905061119f565b50849250505092915050565b6111df81611776565b82525050565b6111ee81611776565b82525050565b6111fd81611788565b82525050565b61120c81611788565b82525050565b600061121d82611657565b61122781856116af565b93506112378185602086016117cd565b61124081611800565b840191505092915050565b60006112568261164c565b611260818561169e565b93506112708185602086016117cd565b61127981611800565b840191505092915050565b6000611291600f836116af565b91507f5461736b73206e6f7420666f756e6400000000000000000000000000000000006000830152602082019050919050565b60006112d16020836116af565b91507f7072696f72697479206d757374206265206265747765656e203120616e6420356000830152602082019050919050565b60006113116020836116af565b91507f5072696f72697479206d757374206265206265747765656e203120616e6420356000830152602082019050919050565b60006113516021836116af565b91507f4e6f207461736b7320776974682074686973207072696f7269747920666f756e60008301527f64000000000000000000000000000000000000000000000000000000000000006020830152604082019050919050565b600060a0830160008301516113c260008601826110ed565b50602083015184820360208601526113da828261124b565b91505060408301516113ef60408601826111d6565b50606083015161140260608601826111f4565b5060808301516114156080860182611420565b508091505092915050565b6114298161171e565b82525050565b6114388161171e565b82525050565b600060808201905061145360008301876110de565b81810360208301526114658186611212565b905061147460408301856111e5565b611481606083018461142f565b95945050505050565b600060a08201905061149f60008301886110fc565b81810360208301526114b18187611212565b90506114c060408301866111e5565b6114cd6060830185611203565b6114da608083018461142f565b9695505050505050565b600060208201905081810360008301526114fe818461110b565b905092915050565b60006020820190508181036000830152611520818461117c565b905092915050565b6000602082019050818103600083015261154181611284565b9050919050565b60006020820190508181036000830152611561816112c4565b9050919050565b6000602082019050818103600083015261158181611304565b9050919050565b600060208201905081810360008301526115a181611344565b9050919050565b60006020820190506115bd600083018461142f565b92915050565b6000604051905081810181811067ffffffffffffffff821117156115e657600080fd5b8060405250919050565b600067ffffffffffffffff82111561160757600080fd5b601f19601f8301169050602081019050919050565b6000602082019050919050565b6000602082019050919050565b600081519050919050565b600081519050919050565b600081519050919050565b600081519050919050565b6000602082019050919050565b6000602082019050919050565b600082825260208201905092915050565b600082825260208201905092915050565b600082825260208201905092915050565b600082825260208201905092915050565b60006116cb826116fe565b9050919050565b60006007821015156116e057fe5b819050919050565b60006006821015156116f657fe5b819050919050565b600073ffffffffffffffffffffffffffffffffffffffff82169050919050565b6000819050919050565b600060078210151561173957600080fd5b819050919050565b600060068210151561175257600080fd5b819050919050565b6000819050919050565b600061176f8261179a565b9050919050565b6000611781826116d2565b9050919050565b6000611793826116e8565b9050919050565b60006117a5826117ac565b9050919050565b60006117b7826116fe565b9050919050565b82818337600083830152505050565b60005b838110156117eb5780820151818401526020810190506117d0565b838111156117fa576000848401525b50505050565b6000601f19601f830116905091905056fea265627a7a72305820fc937530d7aa2902511102964d7e614a9c24e131a30349ef5b0671b80fc92aab6c6578706572696d656e74616cf50037",
  "source": "pragma solidity 0.5.4;\npragma experimental ABIEncoderV2;\n\ncontract TaskManager {\n    /*  \n        Representa o nmero de tarefas, conforme for sendo criadas \n        novas tarefas esse nemro vai sendo incrementado.\n    */\n    uint public nTasks; \n    \n    /* \n        Em que est a tarefa\n    */\n    enum TaskPhase {ToDo, InProgress, Done, Blocked, Review, Postponed, Canceled}\n\n    /* \n        Tipo da tarefa\n    */\n    enum TypeTask {Personal, Family, Home, Work, Review, Student}\n    \n    /* \n        Estrutura da tarefa:\n            criador/dono,\n            nome da tarefa,\n            fase da tarefa,\n            tipo de dprioridade\n    */\n    struct TaskStruct {\n        address owner;\n        string name;\n        TaskPhase phase;\n        TypeTask ttype;\n        /* \n            A prioridade varia de 1-5. Sendo 1 prioridade muito alta e 5 menos importante.\n        */\n        uint priority; \n    }\n    /* \n        Arrey de tarefas\n    */\n    TaskStruct[] private tasks;\n    /* \n        Arrey de tarefas por prioridade\n    */\n    TaskStruct[] private taskByPriority;\n\n    /* \n        Estrutura de chave valor. Vale lembrar que ele \n        adiciona uma tarefa ele j vincula o id da tarefa \n        dentro desse array chamado de myTasks.\n    */\n    mapping (address => uint[]) private myTasks;\n\n    /* \n        Gera um evento toda vez que criamos uma nova tarefa.\n    */\n    event TaskAdded(address owner, string name, TaskPhase phase, uint priority);\n    \n    /*\n        O mtodo modofoer, verifca e vlida se o usurio  de \n        fato o dono da tarefa. Para poder fazer alguma requisio.\n    */\n    modifier onlyOwner (uint _taskIndex) {\n         if  (tasks[_taskIndex].owner == msg.sender) {\n           _;\n        }\n    }\n    \n    /* \n        Mtodo contrutor. Neste caso ele incializa com 0 nTasks.\n        E tambm cria 3 tarefas.\n    */\n    constructor() public {\n        nTasks = 0;\n        addTask (\"Create Task Manager\", TaskPhase.Done, TypeTask.Work, 1);\n        addTask (\"Create Your first task\", TaskPhase.ToDo, TypeTask.Personal, 2);\n        addTask (\"Clean your house\", TaskPhase.ToDo, TypeTask.Home, 5);\n        addTask (\"Watch new spider man movie\", TaskPhase.InProgress, TypeTask.Family, 3);\n        addTask (\"watch new episode of onpiece\", TaskPhase.ToDo, TypeTask.Personal, 5);\n    }    \n\n    /* \n        Funo que pega as tasks\n    */\n    function getTask(uint _taskIndex) public view\n        returns (address owner, string memory name, TaskPhase phase, TypeTask ttype, uint priority) {\n        require ((tasks.length > _taskIndex), \"Tasks not found\");\n        owner = tasks[_taskIndex].owner;\n        name = tasks[_taskIndex].name;\n        phase = tasks[_taskIndex].phase;\n        ttype = tasks[_taskIndex].ttype;\n        priority = tasks[_taskIndex].priority;\n    }\n    \n    /* \n        Funo que lista todas as tarefas de um usuario(dono)\n    */\n    function listMyTasks() public view returns (uint[] memory) {\n        return myTasks[msg.sender];\n    }\n\n    /* \n        Funo responsavel por atualizar o array de tarefas de acordo com uma prioridade\n    */\n    function updateArrayTaskByPriority(uint _priority) private {\n        /* \n            Limpa o array de tarefas por prioridade\n        */\n        delete taskByPriority;\n\n        uint[] memory myTasksAll = myTasks[msg.sender];\n        \n        for (uint index = 0; index < myTasksAll.length; index++) {    \n            if (tasks[myTasksAll[index]].priority == _priority) {\n                TaskStruct memory taskAux = TaskStruct ({\n                    owner: msg.sender,\n                    name: tasks[myTasksAll[index]].name,\n                    phase: tasks[myTasksAll[index]].phase, \n                    ttype: tasks[myTasksAll[index]].ttype,\n                    priority: tasks[myTasksAll[index]].priority\n                });\n                taskByPriority.push(taskAux);\n            }\n        }\n    }\n    \n    /* \n        Funo que lista todas as tarefas de um usuario(dono) \n        de uma determinada prioridade.\n    */\n    function listMyTasksByPriority(uint _priority) public returns (TaskStruct[] memory) {\n        /*\n            Lana um exeo se a prioridade passada for \n            menor que 0 ou maior que 5\n        */\n        require ((_priority >= 1 && _priority <=5), \"Priority must be between 1 and 5\");\n        /* \n            Chama a funo que limpa o array de tarefas por prioridade, \n            e depois insere apartir de uma nova prioridade\n        */\n        updateArrayTaskByPriority(_priority);\n        /*\n            Lana um exeo se a o array de prioridades for \n            menor que ou igual a 0\n        */\n        require ((taskByPriority.length > 0), \"No tasks with this priority found\");\n        \n        return taskByPriority;\n    }\n    \n    /* \n        Funo que cria uma nova tarefa\n    */\n    function addTask(string memory _name, TaskPhase _phase, TypeTask _type, uint _priority) public returns (uint index) {\n        require ((_priority >= 1 && _priority <=5), \"priority must be between 1 and 5\");\n        TaskStruct memory taskAux = TaskStruct ({\n            owner: msg.sender,\n            name: _name,\n            phase: _phase, \n            ttype: _type,\n            priority: _priority\n        });\n        index = tasks.push (taskAux) - 1;\n        nTasks ++;\n        myTasks[msg.sender].push(index);\n        emit TaskAdded (msg.sender, _name, _phase, _priority);\n    }\n    \n    /* \n        Funo que atualiza a fase do projeto\n    */\n    function updatePhase(uint _taskIndex, TaskPhase _phase) public onlyOwner(_taskIndex) {\n        tasks[_taskIndex].phase = _phase;\n    }\n    \n}",
  "sourcePath": "/Users/victor/Documents/SD/Trabalho/projeto/EthereumWork/contracts/TaskManager.sol",
  "compiler": {
    "name": "solc",
    "version": "0.5.4+commit.9549d8ff.Emscripten.clang"
  },
  "schemaVersion": "3.4.3",
  "updatedAt": "2021-12-15T19:11:50.817Z",
  "networkType": "ethereum",
  "devdoc": {
    "methods": {}
  },
  "userdoc": {
    "methods": {}
  }
}